{
  "contractName": "Kontrak",
  "abi": [
    {
      "anonymous": false,
      "inputs": [],
      "name": "_cancelled",
      "type": "event"
    },
    {
      "anonymous": false,
      "inputs": [],
      "name": "_completed",
      "type": "event"
    },
    {
      "anonymous": false,
      "inputs": [
        {
          "indexed": false,
          "internalType": "uint256",
          "name": "amount",
          "type": "uint256"
        }
      ],
      "name": "_deposit",
      "type": "event"
    },
    {
      "anonymous": false,
      "inputs": [
        {
          "indexed": false,
          "internalType": "address",
          "name": "employee",
          "type": "address"
        }
      ],
      "name": "_handshake",
      "type": "event"
    },
    {
      "anonymous": false,
      "inputs": [
        {
          "indexed": false,
          "internalType": "uint256",
          "name": "amount",
          "type": "uint256"
        }
      ],
      "name": "_pay",
      "type": "event"
    },
    {
      "constant": true,
      "inputs": [],
      "name": "cancelled",
      "outputs": [
        {
          "internalType": "bool",
          "name": "",
          "type": "bool"
        }
      ],
      "payable": false,
      "stateMutability": "view",
      "type": "function"
    },
    {
      "constant": true,
      "inputs": [],
      "name": "employee",
      "outputs": [
        {
          "internalType": "address payable",
          "name": "",
          "type": "address"
        }
      ],
      "payable": false,
      "stateMutability": "view",
      "type": "function"
    },
    {
      "constant": true,
      "inputs": [],
      "name": "endTimestamp",
      "outputs": [
        {
          "internalType": "uint256",
          "name": "",
          "type": "uint256"
        }
      ],
      "payable": false,
      "stateMutability": "view",
      "type": "function"
    },
    {
      "constant": true,
      "inputs": [],
      "name": "endTrialTimestamp",
      "outputs": [
        {
          "internalType": "uint256",
          "name": "",
          "type": "uint256"
        }
      ],
      "payable": false,
      "stateMutability": "view",
      "type": "function"
    },
    {
      "constant": true,
      "inputs": [],
      "name": "markCompleted",
      "outputs": [
        {
          "internalType": "bool",
          "name": "",
          "type": "bool"
        }
      ],
      "payable": false,
      "stateMutability": "view",
      "type": "function"
    },
    {
      "constant": true,
      "inputs": [],
      "name": "owner",
      "outputs": [
        {
          "internalType": "address payable",
          "name": "",
          "type": "address"
        }
      ],
      "payable": false,
      "stateMutability": "view",
      "type": "function"
    },
    {
      "constant": true,
      "inputs": [],
      "name": "startTime",
      "outputs": [
        {
          "internalType": "uint256",
          "name": "",
          "type": "uint256"
        }
      ],
      "payable": false,
      "stateMutability": "view",
      "type": "function"
    },
    {
      "constant": true,
      "inputs": [],
      "name": "timeframe",
      "outputs": [
        {
          "internalType": "uint256",
          "name": "",
          "type": "uint256"
        }
      ],
      "payable": false,
      "stateMutability": "view",
      "type": "function"
    },
    {
      "constant": true,
      "inputs": [],
      "name": "trialPeriod",
      "outputs": [
        {
          "internalType": "uint256",
          "name": "",
          "type": "uint256"
        }
      ],
      "payable": false,
      "stateMutability": "view",
      "type": "function"
    },
    {
      "constant": false,
      "inputs": [
        {
          "internalType": "uint256",
          "name": "_endTimestamp",
          "type": "uint256"
        }
      ],
      "name": "createContract",
      "outputs": [],
      "payable": false,
      "stateMutability": "nonpayable",
      "type": "function"
    },
    {
      "constant": true,
      "inputs": [],
      "name": "getCreateContract",
      "outputs": [
        {
          "internalType": "uint256",
          "name": "",
          "type": "uint256"
        }
      ],
      "payable": false,
      "stateMutability": "view",
      "type": "function"
    },
    {
      "constant": false,
      "inputs": [
        {
          "internalType": "string",
          "name": "x",
          "type": "string"
        }
      ],
      "name": "setIpfs",
      "outputs": [],
      "payable": false,
      "stateMutability": "nonpayable",
      "type": "function"
    },
    {
      "constant": true,
      "inputs": [],
      "name": "getIpfs",
      "outputs": [
        {
          "internalType": "string",
          "name": "",
          "type": "string"
        }
      ],
      "payable": false,
      "stateMutability": "view",
      "type": "function"
    },
    {
      "constant": false,
      "inputs": [],
      "name": "handShake",
      "outputs": [],
      "payable": false,
      "stateMutability": "nonpayable",
      "type": "function"
    },
    {
      "constant": false,
      "inputs": [],
      "name": "deposit",
      "outputs": [],
      "payable": true,
      "stateMutability": "payable",
      "type": "function"
    },
    {
      "constant": true,
      "inputs": [],
      "name": "getBalance",
      "outputs": [
        {
          "internalType": "uint256",
          "name": "",
          "type": "uint256"
        }
      ],
      "payable": false,
      "stateMutability": "view",
      "type": "function"
    },
    {
      "constant": true,
      "inputs": [],
      "name": "isCompleted",
      "outputs": [
        {
          "internalType": "bool",
          "name": "",
          "type": "bool"
        }
      ],
      "payable": false,
      "stateMutability": "view",
      "type": "function"
    },
    {
      "constant": true,
      "inputs": [],
      "name": "passedTimeFrame",
      "outputs": [
        {
          "internalType": "bool",
          "name": "",
          "type": "bool"
        }
      ],
      "payable": false,
      "stateMutability": "view",
      "type": "function"
    },
    {
      "constant": false,
      "inputs": [],
      "name": "pay",
      "outputs": [],
      "payable": true,
      "stateMutability": "payable",
      "type": "function"
    },
    {
      "constant": false,
      "inputs": [],
      "name": "cancel",
      "outputs": [],
      "payable": false,
      "stateMutability": "nonpayable",
      "type": "function"
    },
    {
      "constant": false,
      "inputs": [],
      "name": "complete",
      "outputs": [],
      "payable": true,
      "stateMutability": "payable",
      "type": "function"
    }
  ],
  "bytecode": "0x60806040526000600760006101000a81548160ff0219169083151502179055506000600760016101000a81548160ff02191690831515021790555034801561004657600080fd5b50610ef3806100566000396000f3fe60806040526004361061012a5760003560e01c80639db8d7d5116100ab578063ba59b66f1161006f578063ba59b66f146103d2578063c31fa083146103fd578063d0e30db0146104c5578063ea8a1af0146104cf578063f8dd5af5146104e6578063fa391c64146105765761012a565b80639db8d7d5146102bf578063a0a1a7d7146102fa578063a85adeab14610351578063ad36725e1461037c578063b1da1d3f146103a75761012a565b806378e97925116100f257806378e97925146101cc5780638da5cb5b146101f75780639305fdd51461024e5780639761076f146102795780639a82a09a146102905761012a565b806312065fe01461012f5780631b9265b81461015a5780632ad873241461016457806344b45c5014610193578063522e1177146101c2575b600080fd5b34801561013b57600080fd5b506101446105a5565b6040518082815260200191505060405180910390f35b6101626105c4565b005b34801561017057600080fd5b506101796107c8565b604051808215151515815260200191505060405180910390f35b34801561019f57600080fd5b506101a86107df565b604051808215151515815260200191505060405180910390f35b6101ca6107f2565b005b3480156101d857600080fd5b506101e1610923565b6040518082815260200191505060405180910390f35b34801561020357600080fd5b5061020c610929565b604051808273ffffffffffffffffffffffffffffffffffffffff1673ffffffffffffffffffffffffffffffffffffffff16815260200191505060405180910390f35b34801561025a57600080fd5b5061026361094e565b6040518082815260200191505060405180910390f35b34801561028557600080fd5b5061028e610954565b005b34801561029c57600080fd5b506102a5610a54565b604051808215151515815260200191505060405180910390f35b3480156102cb57600080fd5b506102f8600480360360208110156102e257600080fd5b8101908080359060200190929190505050610a67565b005b34801561030657600080fd5b5061030f610acf565b604051808273ffffffffffffffffffffffffffffffffffffffff1673ffffffffffffffffffffffffffffffffffffffff16815260200191505060405180910390f35b34801561035d57600080fd5b50610366610af5565b6040518082815260200191505060405180910390f35b34801561038857600080fd5b50610391610afb565b6040518082815260200191505060405180910390f35b3480156103b357600080fd5b506103bc610b01565b6040518082815260200191505060405180910390f35b3480156103de57600080fd5b506103e7610b0b565b6040518082815260200191505060405180910390f35b34801561040957600080fd5b506104c36004803603602081101561042057600080fd5b810190808035906020019064010000000081111561043d57600080fd5b82018360208201111561044f57600080fd5b8035906020019184600183028401116401000000008311171561047157600080fd5b91908080601f016020809104026020016040519081016040528093929190818152602001838380828437600081840152601f19601f820116905080830192505050505050509192919290505050610b11565b005b6104cd610b85565b005b3480156104db57600080fd5b506104e4610c17565b005b3480156104f257600080fd5b506104fb610d38565b6040518080602001828103825283818151815260200191508051906020019080838360005b8381101561053b578082015181840152602081019050610520565b50505050905090810190601f1680156105685780820380516001836020036101000a031916815260200191505b509250505060405180910390f35b34801561058257600080fd5b5061058b610dda565b604051808215151515815260200191505060405180910390f35b60003073ffffffffffffffffffffffffffffffffffffffff1631905090565b3373ffffffffffffffffffffffffffffffffffffffff16600160009054906101000a900473ffffffffffffffffffffffffffffffffffffffff1673ffffffffffffffffffffffffffffffffffffffff161461061e57600080fd5b6003546004540161062d610e11565b101561063857600080fd5b60003073ffffffffffffffffffffffffffffffffffffffff1631905061065c6107c8565b1561070657600160009054906101000a900473ffffffffffffffffffffffffffffffffffffffff1673ffffffffffffffffffffffffffffffffffffffff166108fc829081150290604051600060405180830381858888f193505050501580156106c9573d6000803e3d6000fd5b507fc1c4276d8132dd667673edcac2941584fd465e285b45009ced667891a23f2dac816040518082815260200191505060405180910390a16107c5565b6000600254600454610716610e11565b0383028161072057fe5b049050600160009054906101000a900473ffffffffffffffffffffffffffffffffffffffff1673ffffffffffffffffffffffffffffffffffffffff166108fc829081150290604051600060405180830381858888f1935050505015801561078b573d6000803e3d6000fd5b507fc1c4276d8132dd667673edcac2941584fd465e285b45009ced667891a23f2dac816040518082815260200191505060405180910390a1505b50565b60006002546004546107d8610e11565b0311905090565b600760019054906101000a900460ff1681565b3373ffffffffffffffffffffffffffffffffffffffff166000809054906101000a900473ffffffffffffffffffffffffffffffffffffffff1673ffffffffffffffffffffffffffffffffffffffff161461084b57600080fd5b60006004541161085a57600080fd5b600160009054906101000a900473ffffffffffffffffffffffffffffffffffffffff1673ffffffffffffffffffffffffffffffffffffffff166108fc3073ffffffffffffffffffffffffffffffffffffffff16319081150290604051600060405180830381858888f193505050501580156108d9573d6000803e3d6000fd5b506001600760016101000a81548160ff0219169083151502179055507ffb8319c9ef827981794b0a85f81971559f2ab35af6743bbc4a25bf7a66bdc46660405160405180910390a1565b60045481565b6000809054906101000a900473ffffffffffffffffffffffffffffffffffffffff1681565b60065481565b3373ffffffffffffffffffffffffffffffffffffffff166000809054906101000a900473ffffffffffffffffffffffffffffffffffffffff1673ffffffffffffffffffffffffffffffffffffffff1614156109ae57600080fd5b33600160006101000a81548173ffffffffffffffffffffffffffffffffffffffff021916908373ffffffffffffffffffffffffffffffffffffffff1602179055507f1e4f6879a608b32c57659f68ccbfd74124befec5cf79d8c4a9aadae1577a70ea33604051808273ffffffffffffffffffffffffffffffffffffffff1673ffffffffffffffffffffffffffffffffffffffff16815260200191505060405180910390a1565b600760009054906101000a900460ff1681565b336000806101000a81548173ffffffffffffffffffffffffffffffffffffffff021916908373ffffffffffffffffffffffffffffffffffffffff16021790555080600581905550610ab6610e11565b600481905550610ac4610e11565b810360028190555050565b600160009054906101000a900473ffffffffffffffffffffffffffffffffffffffff1681565b60055481565b60035481565b6000600554905090565b60025481565b3373ffffffffffffffffffffffffffffffffffffffff16600160009054906101000a900473ffffffffffffffffffffffffffffffffffffffff1673ffffffffffffffffffffffffffffffffffffffff1614610b6b57600080fd5b8060089080519060200190610b81929190610e19565b5050565b3373ffffffffffffffffffffffffffffffffffffffff166000809054906101000a900473ffffffffffffffffffffffffffffffffffffffff1673ffffffffffffffffffffffffffffffffffffffff1614610bde57600080fd5b7f9213b124ef0123fea75442003792797a5bf69c1844526bdc406d3e452afae5c7346040518082815260200191505060405180910390a1565b3373ffffffffffffffffffffffffffffffffffffffff166000809054906101000a900473ffffffffffffffffffffffffffffffffffffffff1673ffffffffffffffffffffffffffffffffffffffff1614610c7057600080fd5b6000809054906101000a900473ffffffffffffffffffffffffffffffffffffffff1673ffffffffffffffffffffffffffffffffffffffff166108fc3073ffffffffffffffffffffffffffffffffffffffff16319081150290604051600060405180830381858888f19350505050158015610cee573d6000803e3d6000fd5b506001600760006101000a81548160ff0219169083151502179055507fbe7bf1c4497867104d4dbc15b1d05eb08cbc89bd3b6086b8e47b38b58c4fe4e560405160405180910390a1565b606060088054600181600116156101000203166002900480601f016020809104026020016040519081016040528092919081815260200182805460018160011615610100020316600290048015610dd05780601f10610da557610100808354040283529160200191610dd0565b820191906000526020600020905b815481529060010190602001808311610db357829003601f168201915b5050505050905090565b6000600760019054906101000a900460ff1680610dfb5750610dfa6107c8565b5b15610e095760019050610e0e565b600090505b90565b600042905090565b828054600181600116156101000203166002900490600052602060002090601f016020900481019282601f10610e5a57805160ff1916838001178555610e88565b82800160010185558215610e88579182015b82811115610e87578251825591602001919060010190610e6c565b5b509050610e959190610e99565b5090565b610ebb91905b80821115610eb7576000816000905550600101610e9f565b5090565b9056fea265627a7a723158203afdc18b24ff8217bdae132cc9e493bb59aadebc18834137a567798b7c0995bf64736f6c63430005100032",
  "source": "pragma solidity >=0.4.21 < 0.6.3;\r\n\r\n\r\ncontract Kontrak {\r\n    address payable public owner;\r\n    address payable public employee;\r\n    uint256 public timeframe;\r\n    uint256 public trialPeriod;\r\n    uint256 public startTime;\r\n    uint256 public endTimestamp;\r\n    uint256 public endTrialTimestamp;\r\n    bool public cancelled = false;\r\n    bool public markCompleted = false;\r\n    string ipfsHash;\r\n\r\n    event _deposit(uint amount);\r\n    event _handshake(address employee);\r\n    event _completed();\r\n    event _cancelled();\r\n    event _pay(uint amount);\r\n\r\n    //ini constructor kalo dideploy paramny juga kudu keisi\r\n    function createContract(uint256 _endTimestamp) public {\r\n      owner = msg.sender;\r\n      endTimestamp = _endTimestamp;\r\n      // endTrialTimestamp = _trialEndTimestamp;\r\n      startTime = getTimestamp();\r\n      timeframe = _endTimestamp - getTimestamp();\r\n      //trialPeriod = _trialEndTimestamp - getTimestamp();\r\n    }\r\n\r\n    function getCreateContract() public view returns (uint256){\r\n        return endTimestamp;\r\n    } \r\n\r\n    function setIpfs(string memory x) onlyEmployee public{\r\n      ipfsHash=x;\r\n    }\r\n\r\n    function getIpfs() public view returns (string memory){\r\n      return ipfsHash;\r\n    }\r\n\r\n    modifier onlyStarted() {\r\n      require(startTime > 0);\r\n      _;\r\n    }\r\n\r\n    modifier onlyOwner() {\r\n      require(owner == msg.sender);\r\n      _;\r\n    }\r\n\r\n    modifier onlyEmployee() {\r\n      require(employee == msg.sender);\r\n      _;\r\n    }\r\n\r\n    modifier notOwner() {\r\n      require(owner != msg.sender);\r\n      _;\r\n    }\r\n\r\n    modifier notTrialPeriod() {\r\n      require(getTimestamp() >= startTime + trialPeriod);\r\n      _;\r\n    }\r\n\r\n\r\n    function handShake () notOwner public {\r\n      employee = msg.sender;\r\n      // startTime = now;\r\n      emit _handshake(msg.sender);\r\n    }\r\n\r\n    function deposit() onlyOwner payable public {\r\n      emit _deposit(msg.value);\r\n    }\r\n\r\n    function getBalance() view public returns (uint) {\r\n      return address(this).balance;\r\n    }\r\n\r\n    function getTimestamp() view internal returns (uint256) {\r\n      return now;\r\n    }\r\n\r\n    function isCompleted() view public returns (bool) {\r\n      if (markCompleted || passedTimeFrame()) {\r\n        return true;\r\n      }\r\n\r\n      return false;\r\n    }\r\n\r\n    function passedTimeFrame() view public returns (bool) {\r\n      return getTimestamp() - startTime > timeframe;\r\n    }\r\n\r\n    function pay() onlyEmployee notTrialPeriod public payable {\r\n      uint balance = address(this).balance;\r\n      if (passedTimeFrame()) {\r\n        employee.transfer(balance);\r\n        emit _pay(balance);\r\n      } else {\r\n        uint amount = balance * (getTimestamp() - startTime) / timeframe;\r\n        employee.transfer(amount);\r\n        emit _pay(amount);\r\n      }\r\n    }\r\n\r\n    function cancel() onlyOwner public {\r\n      owner.transfer(address(this).balance);\r\n      cancelled = true;\r\n      emit _cancelled();\r\n    }\r\n\r\n    function complete() onlyOwner onlyStarted public payable {\r\n      employee.transfer(address(this).balance);\r\n      markCompleted = true;\r\n      emit _completed();\r\n    }\r\n\r\n}\r\n",
  "sourcePath": "c:\\Blockchain\\smartcontract\\react-dapp-boilerplate\\contracts\\Kontrak.sol",
  "compiler": {
    "name": "solc",
    "version": "0.5.16+commit.9c3226ce.Emscripten.clang"
  },
  "schemaVersion": "3.0.23",
  "updatedAt": "2020-07-23T13:32:14.204Z",
  "networkType": "ethereum",
  "devdoc": {
    "methods": {}
  },
  "userdoc": {
    "methods": {}
  }
}