{
  "contractName": "Pembayaran",
  "abi": [
    {
      "inputs": [],
      "payable": false,
      "stateMutability": "nonpayable",
      "type": "constructor"
    },
    {
      "constant": true,
      "inputs": [
        {
          "internalType": "address",
          "name": "",
          "type": "address"
        }
      ],
      "name": "deposits",
      "outputs": [
        {
          "internalType": "uint256",
          "name": "",
          "type": "uint256"
        }
      ],
      "payable": false,
      "stateMutability": "view",
      "type": "function"
    },
    {
      "constant": false,
      "inputs": [],
      "name": "deposit",
      "outputs": [],
      "payable": true,
      "stateMutability": "payable",
      "type": "function"
    },
    {
      "constant": false,
      "inputs": [],
      "name": "withdraw",
      "outputs": [],
      "payable": false,
      "stateMutability": "nonpayable",
      "type": "function"
    }
  ],
  "bytecode": "0x608060405234801561001057600080fd5b5061036a806100206000396000f3fe6080604052600436106100345760003560e01c80633ccfd60b14610039578063d0e30db014610050578063fc7e286d1461005a575b600080fd5b34801561004557600080fd5b5061004e6100bf565b005b6100586101d4565b005b34801561006657600080fd5b506100a96004803603602081101561007d57600080fd5b81019080803573ffffffffffffffffffffffffffffffffffffffff16906020019092919050505061031d565b6040518082815260200191505060405180910390f35b6000600260008060009054906101000a900473ffffffffffffffffffffffffffffffffffffffff1673ffffffffffffffffffffffffffffffffffffffff1673ffffffffffffffffffffffffffffffffffffffff1681526020019081526020016000205490506000600260008060009054906101000a900473ffffffffffffffffffffffffffffffffffffffff1673ffffffffffffffffffffffffffffffffffffffff1673ffffffffffffffffffffffffffffffffffffffff168152602001908152602001600020819055503373ffffffffffffffffffffffffffffffffffffffff166108fc829081150290604051600060405180830381858888f193505050501580156101d0573d6000803e3d6000fd5b5050565b6000809054906101000a900473ffffffffffffffffffffffffffffffffffffffff1673ffffffffffffffffffffffffffffffffffffffff166000809054906101000a900473ffffffffffffffffffffffffffffffffffffffff1673ffffffffffffffffffffffffffffffffffffffff161461024e57600080fd5b600034905080600260008060009054906101000a900473ffffffffffffffffffffffffffffffffffffffff1673ffffffffffffffffffffffffffffffffffffffff1673ffffffffffffffffffffffffffffffffffffffff1681526020019081526020016000205401600260008060009054906101000a900473ffffffffffffffffffffffffffffffffffffffff1673ffffffffffffffffffffffffffffffffffffffff1673ffffffffffffffffffffffffffffffffffffffff1681526020019081526020016000208190555050565b6002602052806000526040600020600091509050548156fea265627a7a7231582096febbe843ba56822a2229a9674339e61349f87d67045ce846971e338c38082364736f6c63430005100032",
  "source": "pragma solidity >=0.4.21 < 0.6.3;\r\n\r\ncontract Pembayaran{\r\n \r\n    address owner;\r\n    address pekerja;\r\n    \r\n    mapping(address => uint256) public deposits;\r\n    \r\n    modifier onlyOwner(){\r\n        require(owner == owner);\r\n        _;\r\n    }\r\n    \r\n    constructor() public{\r\n        //owner = msg.sender;\r\n        //pekerja = _pekerja;\r\n        //pekerja = tx.origin;\r\n    }\r\n    \r\n    function deposit() public onlyOwner payable{\r\n        uint256 jumlah = msg.value;\r\n        deposits[owner] = deposits[owner] + jumlah;\r\n        \r\n    }\r\n    \r\n    function withdraw() public {\r\n        //msg.sender = pekerja\r\n        //employee = msg.sender;\r\n        uint256 bayar = deposits[owner];\r\n        deposits[owner] = 0;\r\n        msg.sender.transfer(bayar);\r\n    }\r\n    \r\n    \r\n}",
  "sourcePath": "c:\\Blockchain\\smartcontract\\react-dapp-boilerplate\\contracts\\Pembayaran.sol",
  "compiler": {
    "name": "solc",
    "version": "0.5.16+commit.9c3226ce.Emscripten.clang"
  },
  "schemaVersion": "3.0.23",
  "updatedAt": "2020-07-23T13:32:14.170Z",
  "networkType": "ethereum",
  "devdoc": {
    "methods": {}
  },
  "userdoc": {
    "methods": {}
  }
}