{
  "contractName": "Penawaran",
  "abi": [
    {
      "anonymous": false,
      "inputs": [
        {
          "indexed": false,
          "internalType": "uint256",
          "name": "id",
          "type": "uint256"
        },
        {
          "indexed": false,
          "internalType": "uint256",
          "name": "tawar",
          "type": "uint256"
        },
        {
          "indexed": false,
          "internalType": "address",
          "name": "owner",
          "type": "address"
        }
      ],
      "name": "penawaranCreated",
      "type": "event"
    },
    {
      "constant": true,
      "inputs": [],
      "name": "dataCount",
      "outputs": [
        {
          "internalType": "uint256",
          "name": "",
          "type": "uint256"
        }
      ],
      "payable": false,
      "stateMutability": "view",
      "type": "function"
    },
    {
      "constant": true,
      "inputs": [
        {
          "internalType": "uint256",
          "name": "",
          "type": "uint256"
        }
      ],
      "name": "datas",
      "outputs": [
        {
          "internalType": "uint256",
          "name": "id",
          "type": "uint256"
        },
        {
          "internalType": "uint256",
          "name": "tawar",
          "type": "uint256"
        },
        {
          "internalType": "address",
          "name": "owner",
          "type": "address"
        }
      ],
      "payable": false,
      "stateMutability": "view",
      "type": "function"
    },
    {
      "constant": false,
      "inputs": [
        {
          "internalType": "uint256",
          "name": "_tawar",
          "type": "uint256"
        }
      ],
      "name": "createPenawaran",
      "outputs": [],
      "payable": false,
      "stateMutability": "nonpayable",
      "type": "function"
    },
    {
      "constant": false,
      "inputs": [
        {
          "internalType": "uint256",
          "name": "_id",
          "type": "uint256"
        }
      ],
      "name": "getPenawar",
      "outputs": [],
      "payable": false,
      "stateMutability": "nonpayable",
      "type": "function"
    }
  ],
  "bytecode": "0x60806040526000805534801561001457600080fd5b506103d4806100246000396000f3fe608060405234801561001057600080fd5b506004361061004c5760003560e01c80635da40c4714610051578063a671c1cd1461006f578063c0a094fd1461009d578063da92180214610119575b600080fd5b610059610147565b6040518082815260200191505060405180910390f35b61009b6004803603602081101561008557600080fd5b810190808035906020019092919050505061014d565b005b6100c9600480360360208110156100b357600080fd5b81019080803590602001909291905050506101e3565b604051808481526020018381526020018273ffffffffffffffffffffffffffffffffffffffff1673ffffffffffffffffffffffffffffffffffffffff168152602001935050505060405180910390f35b6101456004803603602081101561012f57600080fd5b810190808035906020019092919050505061022d565b005b60005481565b610155610368565b6001600083815260200190815260200160002060405180606001604052908160008201548152602001600182015481526020016002820160009054906101000a900473ffffffffffffffffffffffffffffffffffffffff1673ffffffffffffffffffffffffffffffffffffffff1673ffffffffffffffffffffffffffffffffffffffff168152505090505050565b60016020528060005260406000206000915090508060000154908060010154908060020160009054906101000a900473ffffffffffffffffffffffffffffffffffffffff16905083565b6000811161023a57600080fd5b6000808154809291906001019190505550604051806060016040528060005481526020018281526020013373ffffffffffffffffffffffffffffffffffffffff168152506001600080548152602001908152602001600020600082015181600001556020820151816001015560408201518160020160006101000a81548173ffffffffffffffffffffffffffffffffffffffff021916908373ffffffffffffffffffffffffffffffffffffffff1602179055509050507f4b57aa6700c5851c16808cb9ef00098edeedb8eccf561898ada105ecd44668d06000548233604051808481526020018381526020018273ffffffffffffffffffffffffffffffffffffffff1673ffffffffffffffffffffffffffffffffffffffff168152602001935050505060405180910390a150565b60405180606001604052806000815260200160008152602001600073ffffffffffffffffffffffffffffffffffffffff168152509056fea265627a7a723158209d4f6cf08e390f2e233b3f952624ac4f056f9fe3c61e91c26d0e1d2a2ea700c364736f6c63430005100032",
  "source": "pragma solidity >=0.4.21 < 0.6.3;\r\n\r\ncontract Penawaran{\r\n    uint public dataCount = 0;    \r\n    mapping(uint => Data) public datas;\r\n    \r\n    struct Data{\r\n        uint id;\r\n        uint256 tawar;\r\n        address owner;\r\n    }\r\n    \r\n    event penawaranCreated(\r\n        uint id,\r\n        uint256 tawar,\r\n        address owner\r\n    );\r\n    \r\n\r\n    \r\n    function createPenawaran(uint256 _tawar) public {\r\n        //require a valid name\r\n        require(_tawar>0);\r\n        dataCount ++;\r\n        datas[dataCount] = Data(dataCount, _tawar, msg.sender);\r\n        emit penawaranCreated(dataCount, _tawar, msg.sender);\r\n    }\r\n    \r\n    function getPenawar(uint256 _id) public {\r\n        //fetch datanya\r\n        Data memory _data = datas[_id];\r\n        //fetch wallet address orangnya\r\n        //address _seller = _product.owner;\r\n    }\r\n}",
  "sourcePath": "c:\\Blockchain\\smartcontract\\react-dapp-boilerplate\\contracts\\Penawaran.sol",
  "compiler": {
    "name": "solc",
    "version": "0.5.16+commit.9c3226ce.Emscripten.clang"
  },
  "schemaVersion": "3.0.23",
  "updatedAt": "2020-07-23T13:32:14.192Z",
  "networkType": "ethereum",
  "devdoc": {
    "methods": {}
  },
  "userdoc": {
    "methods": {}
  }
}